:060000000A128A11FC2F18
:100BF2000A128A1120260A128A11831603139114EB
:100C020008000A128A1120260A128A118316031377
:100C1200111408000A128A1120260A128A11831658
:100C22000313111508008316031391160A128A1171
:100C320020260A128A11831603131116080083163E
:100C420003131419252E262E202E11081F39031DD9
:100C52002B2E2C2E202E0800F0000A128A1120269C
:100C62000A128A1170088312031393008C1D3A2E04
:100C72003B2E372E8C11003083160313111B0130CB
:100C820008000A128A1120260A128A1183160313F7
:100C9200911583128C1D4E2E4F2E4A2E8C110A1244
:100CA2008A1120260A128A118312031313080800DC
:100CB2000A128A1102260A128A11A0300A128A1115
:100CC2002D260A128A11003A031D682E692E5E2E05
:100CD20072080A128A112D260A128A1171080A1242
:100CE2008A112D260A128A1173080A128A112D26D8
:100CF2000A128A110A128A110B260A128A11080094
:100D02002830831203139400831603139101831274
:100D120003132008A4002108A5002208A600230826
:100D2200A70002300310A40DA50DA60DA70DFF3ECE
:100D3200031D932E2708F3002608F2002508F10070
:100D42002408F0000030F700F430F6002430F500FB
:100D52000030F4000A128A11F2260A128A1170086F
:100D6200FF3E8316031393009401871507160800AC
:100D72000A128A1102260A128A11A0300A128A1154
:100D82002D260A128A11003A031DC82EC92EBE2E24
:100D920072080A128A112D260A128A1171080A1281
:100DA2008A112D260A128A110A128A11F9250A12AB
:100DB2008A11A1300A128A112D260A128A110A12E8
:100DC2008A1142260A128A11F3000A128A11142683
:100DD2000A128A110A128A110B260A128A11730840
:100DE20008000030FC000030FB000030FA00003048
:100DF200F90073087204710470040319012F022FA1
:100E02004D2F0130FD00102F0130F8000310F00DBE
:100E1200F10DF20DF30DF80B072F0130FD07F31F53
:100E2200132F142F052F0130F8000310F90DFA0DBE
:100E3200FB0DFC0DF80B162F73087702031D2B2FE9
:100E420072087602031D2B2F71087502031D2B2FCA
:100E520070087402031C2E2F2F2F3E2F7008F402ED
:100E62007108031C710FF5027208031C720FF6025F
:100E72007308031C730FF702791401300310F30C8B
:100E8200F20CF10CF00CFF3E031D3F2F0130FD026E
:100E9200031D4C2F4D2F142F7C08F3007B08F2000A
:100EA2007A08F1007908F000080000308312031379
:100EB200A3000130A2008630A100A030A0000A12D7
:100EC2008A1181260A128A112330F1000030F200C1
:100ED2004130F3000A128A1159260A128A1134305B
:100EE20083120313A900F130A800A80B762FA90BD7
:100EF200762F2830F1000030F2004230F3000A125F
:100F02008A1159260A128A11343083120313A90056
:100F1200F130A800A80B8B2FA90B8B2F3630F100D4
:100F22000030F2004330F3000A128A1159260A12E5
:100F32008A11343083120313A900F130A800A80BE0
:100F4200A02FA90BA02F8316031388012330F100D1
:100F52000030F2000A128A11B9260A128A1183128B
:100F620003138800293083120313AA009630A900C4
:100F72007E30A800A80BBB2FA90BBB2FAA0BBB2F3F
:100F820000002830F1000030F2000A128A11B9265E
:100F92000A128A1183120313880029308312031361
:100FA200AA009630A9007E30A800A80BD62FA90B64
:100FB200D62FAA0BD62F00003630F1000030F200F7
:100FC2000A128A11B9260A128A118312031388009F
:100FD200293083120313AA009630A9007E30A8009C
:100FE200A80BF12FA90BF12FAA0BF12F0000F82F5C
:0E0FF2000A128A11002883010A128A11562F52
:02400E003A3F37
:00000001FF
